{
  "contractName": "Election",
  "abi": [
    {
      "inputs": [
        {
          "internalType": "contract DappToken",
          "name": "_tokensContract",
          "type": "address"
        }
      ],
      "payable": false,
      "stateMutability": "nonpayable",
      "type": "constructor"
    },
    {
      "anonymous": false,
      "inputs": [
        {
          "indexed": true,
          "internalType": "uint256",
          "name": "_candidateId",
          "type": "uint256"
        }
      ],
      "name": "votedEvent",
      "type": "event"
    },
    {
      "constant": true,
      "inputs": [
        {
          "internalType": "address",
          "name": "",
          "type": "address"
        }
      ],
      "name": "allowedVoters",
      "outputs": [
        {
          "internalType": "bool",
          "name": "",
          "type": "bool"
        }
      ],
      "payable": false,
      "stateMutability": "view",
      "type": "function"
    },
    {
      "constant": true,
      "inputs": [
        {
          "internalType": "uint256",
          "name": "",
          "type": "uint256"
        }
      ],
      "name": "candidates",
      "outputs": [
        {
          "internalType": "uint256",
          "name": "id",
          "type": "uint256"
        },
        {
          "internalType": "string",
          "name": "name",
          "type": "string"
        },
        {
          "internalType": "uint256",
          "name": "voteCount",
          "type": "uint256"
        }
      ],
      "payable": false,
      "stateMutability": "view",
      "type": "function"
    },
    {
      "constant": true,
      "inputs": [],
      "name": "candidatesCount",
      "outputs": [
        {
          "internalType": "uint256",
          "name": "",
          "type": "uint256"
        }
      ],
      "payable": false,
      "stateMutability": "view",
      "type": "function"
    },
    {
      "constant": true,
      "inputs": [],
      "name": "isWindowSet",
      "outputs": [
        {
          "internalType": "bool",
          "name": "",
          "type": "bool"
        }
      ],
      "payable": false,
      "stateMutability": "view",
      "type": "function"
    },
    {
      "constant": true,
      "inputs": [],
      "name": "owner",
      "outputs": [
        {
          "internalType": "address",
          "name": "",
          "type": "address"
        }
      ],
      "payable": false,
      "stateMutability": "view",
      "type": "function"
    },
    {
      "constant": true,
      "inputs": [],
      "name": "tokensContract",
      "outputs": [
        {
          "internalType": "contract DappToken",
          "name": "",
          "type": "address"
        }
      ],
      "payable": false,
      "stateMutability": "view",
      "type": "function"
    },
    {
      "constant": true,
      "inputs": [
        {
          "internalType": "address",
          "name": "",
          "type": "address"
        }
      ],
      "name": "voters",
      "outputs": [
        {
          "internalType": "bool",
          "name": "",
          "type": "bool"
        }
      ],
      "payable": false,
      "stateMutability": "view",
      "type": "function"
    },
    {
      "constant": true,
      "inputs": [],
      "name": "votingWindowEnd",
      "outputs": [
        {
          "internalType": "uint256",
          "name": "",
          "type": "uint256"
        }
      ],
      "payable": false,
      "stateMutability": "view",
      "type": "function"
    },
    {
      "constant": true,
      "inputs": [],
      "name": "votingWindowStart",
      "outputs": [
        {
          "internalType": "uint256",
          "name": "",
          "type": "uint256"
        }
      ],
      "payable": false,
      "stateMutability": "view",
      "type": "function"
    },
    {
      "constant": false,
      "inputs": [
        {
          "internalType": "uint256",
          "name": "start",
          "type": "uint256"
        },
        {
          "internalType": "uint256",
          "name": "end",
          "type": "uint256"
        }
      ],
      "name": "setVotingWindow",
      "outputs": [],
      "payable": false,
      "stateMutability": "nonpayable",
      "type": "function"
    },
    {
      "constant": false,
      "inputs": [
        {
          "internalType": "string",
          "name": "_name",
          "type": "string"
        }
      ],
      "name": "addCandidate",
      "outputs": [],
      "payable": false,
      "stateMutability": "nonpayable",
      "type": "function"
    },
    {
      "constant": false,
      "inputs": [
        {
          "internalType": "uint256",
          "name": "_candidateId",
          "type": "uint256"
        }
      ],
      "name": "vote",
      "outputs": [],
      "payable": false,
      "stateMutability": "nonpayable",
      "type": "function"
    },
    {
      "constant": false,
      "inputs": [],
      "name": "getToken",
      "outputs": [
        {
          "internalType": "contract DappToken",
          "name": "add",
          "type": "address"
        }
      ],
      "payable": false,
      "stateMutability": "nonpayable",
      "type": "function"
    },
    {
      "constant": false,
      "inputs": [
        {
          "internalType": "address",
          "name": "_allowedVoters",
          "type": "address"
        }
      ],
      "name": "submitAllowedVoters",
      "outputs": [],
      "payable": false,
      "stateMutability": "nonpayable",
      "type": "function"
    }
  ],
  "bytecode": "0x608060405260008060146101000a81548160ff0219169083151502179055503480156200002b57600080fd5b5060405162000e5c38038062000e5c833981810160405260208110156200005157600080fd5b8101908080519060200190929190505050806000806101000a81548173ffffffffffffffffffffffffffffffffffffffff021916908373ffffffffffffffffffffffffffffffffffffffff16021790555033600760006101000a81548173ffffffffffffffffffffffffffffffffffffffff021916908373ffffffffffffffffffffffffffffffffffffffff160217905550620001296040518060400160405280600581526020017f4c696375640000000000000000000000000000000000000000000000000000008152506200020260201b60201c565b6200016f6040518060400160405280600781526020017f486161766f6461000000000000000000000000000000000000000000000000008152506200020260201b60201c565b620001b56040518060400160405280601281526020017f486d6168616e652068616d6d6c616368746900000000000000000000000000008152506200020260201b60201c565b620001fb6040518060400160405280600981526020017f59657368204174696400000000000000000000000000000000000000000000008152506200020260201b60201c565b506200038a565b600760009054906101000a900473ffffffffffffffffffffffffffffffffffffffff1673ffffffffffffffffffffffffffffffffffffffff163373ffffffffffffffffffffffffffffffffffffffff16146200025d57600080fd5b600660008154809291906001019190505550604051806060016040528060065481526020018281526020016000815250600460006006548152602001908152602001600020600082015181600001556020820151816001019080519060200190620002ca929190620002db565b506040820151816002015590505050565b828054600181600116156101000203166002900490600052602060002090601f016020900481019282601f106200031e57805160ff19168380011785556200034f565b828001600101855582156200034f579182015b828111156200034e57825182559160200191906001019062000331565b5b5090506200035e919062000362565b5090565b6200038791905b808211156200038357600081600090555060010162000369565b5090565b90565b610ac2806200039a6000396000f3fe608060405234801561001057600080fd5b50600436106100ea5760003560e01c80633477ee2e1161008c5780638da5cb5b116100665780638da5cb5b1461040f5780639405bb5714610459578063a3ec138d1461049d578063f1341a7b146104f9576100ea565b80633477ee2e14610255578063462e91ec1461030a5780637518fa98146103c5576100ea565b8063255adfd4116100c8578063255adfd4146101855780632d35a8a2146101e15780632d5f0201146101ff5780633388874514610237576100ea565b80630121b93f146100ef57806313f9f9ad1461011d57806321df0da71461013b575b600080fd5b61011b6004803603602081101561010557600080fd5b810190808035906020019092919050505061051b565b005b61012561063b565b6040518082815260200191505060405180910390f35b610143610641565b604051808273ffffffffffffffffffffffffffffffffffffffff1673ffffffffffffffffffffffffffffffffffffffff16815260200191505060405180910390f35b6101c76004803603602081101561019b57600080fd5b81019080803573ffffffffffffffffffffffffffffffffffffffff16906020019092919050505061066a565b604051808215151515815260200191505060405180910390f35b6101e961068a565b6040518082815260200191505060405180910390f35b6102356004803603604081101561021557600080fd5b810190808035906020019092919080359060200190929190505050610690565b005b61023f610717565b6040518082815260200191505060405180910390f35b6102816004803603602081101561026b57600080fd5b810190808035906020019092919050505061071d565b6040518084815260200180602001838152602001828103825284818151815260200191508051906020019080838360005b838110156102cd5780820151818401526020810190506102b2565b50505050905090810190601f1680156102fa5780820380516001836020036101000a031916815260200191505b5094505050505060405180910390f35b6103c36004803603602081101561032057600080fd5b810190808035906020019064010000000081111561033d57600080fd5b82018360208201111561034f57600080fd5b8035906020019184600183028401116401000000008311171561037157600080fd5b91908080601f016020809104026020016040519081016040528093929190818152602001838380828437600081840152601f19601f8201169050808301925050505050505091929192905050506107df565b005b6103cd6108b5565b604051808273ffffffffffffffffffffffffffffffffffffffff1673ffffffffffffffffffffffffffffffffffffffff16815260200191505060405180910390f35b6104176108da565b604051808273ffffffffffffffffffffffffffffffffffffffff1673ffffffffffffffffffffffffffffffffffffffff16815260200191505060405180910390f35b61049b6004803603602081101561046f57600080fd5b81019080803573ffffffffffffffffffffffffffffffffffffffff169060200190929190505050610900565b005b6104df600480360360208110156104b357600080fd5b81019080803573ffffffffffffffffffffffffffffffffffffffff1690602001909291905050506109b5565b604051808215151515815260200191505060405180910390f35b6105016109d5565b604051808215151515815260200191505060405180910390f35b600360003373ffffffffffffffffffffffffffffffffffffffff1673ffffffffffffffffffffffffffffffffffffffff16815260200190815260200160002060009054906101000a900460ff161561057257600080fd5b60008111801561058457506006548111155b61058d57600080fd5b6001600360003373ffffffffffffffffffffffffffffffffffffffff1673ffffffffffffffffffffffffffffffffffffffff16815260200190815260200160002060006101000a81548160ff0219169083151502179055506004600082815260200190815260200160002060020160008154809291906001019190505550807ffff3c900d938d21d0990d786e819f29b8d05c1ef587b462b939609625b684b1660405160405180910390a250565b60025481565b60008060009054906101000a900473ffffffffffffffffffffffffffffffffffffffff16905090565b60056020528060005260406000206000915054906101000a900460ff1681565b60065481565b600760009054906101000a900473ffffffffffffffffffffffffffffffffffffffff1673ffffffffffffffffffffffffffffffffffffffff163373ffffffffffffffffffffffffffffffffffffffff16146106ea57600080fd5b81600181905550806002819055506001600060146101000a81548160ff0219169083151502179055505050565b60015481565b6004602052806000526040600020600091509050806000015490806001018054600181600116156101000203166002900480601f0160208091040260200160405190810160405280929190818152602001828054600181600116156101000203166002900480156107cf5780601f106107a4576101008083540402835291602001916107cf565b820191906000526020600020905b8154815290600101906020018083116107b257829003601f168201915b5050505050908060020154905083565b600760009054906101000a900473ffffffffffffffffffffffffffffffffffffffff1673ffffffffffffffffffffffffffffffffffffffff163373ffffffffffffffffffffffffffffffffffffffff161461083957600080fd5b6006600081548092919060010191905055506040518060600160405280600654815260200182815260200160008152506004600060065481526020019081526020016000206000820151816000015560208201518160010190805190602001906108a49291906109e8565b506040820151816002015590505050565b6000809054906101000a900473ffffffffffffffffffffffffffffffffffffffff1681565b600760009054906101000a900473ffffffffffffffffffffffffffffffffffffffff1681565b600760009054906101000a900473ffffffffffffffffffffffffffffffffffffffff1673ffffffffffffffffffffffffffffffffffffffff163373ffffffffffffffffffffffffffffffffffffffff161461095a57600080fd5b6001600560008373ffffffffffffffffffffffffffffffffffffffff1673ffffffffffffffffffffffffffffffffffffffff16815260200190815260200160002060006101000a81548160ff02191690831515021790555050565b60036020528060005260406000206000915054906101000a900460ff1681565b600060149054906101000a900460ff1681565b828054600181600116156101000203166002900490600052602060002090601f016020900481019282601f10610a2957805160ff1916838001178555610a57565b82800160010185558215610a57579182015b82811115610a56578251825591602001919060010190610a3b565b5b509050610a649190610a68565b5090565b610a8a91905b80821115610a86576000816000905550600101610a6e565b5090565b9056fea265627a7a723158205716a476e37f1dd4f5edd810aac9e306ae02c08ec6dd672c44859ff6ede6076264736f6c63430005100032",
  "source": "pragma solidity >=0.5.0;\r\n\r\nimport \"./DappToken.sol\";\r\n\r\ncontract Election {\r\n    struct Candidate {\r\n        uint256 id;\r\n        string name;\r\n        uint256 voteCount;\r\n    }\r\n\r\n    DappToken public tokensContract;\r\n\r\n    bool public isWindowSet = false;\r\n    uint256 public votingWindowStart;\r\n    uint256 public votingWindowEnd;\r\n\r\n    // Accounts that have voted\r\n    mapping(address => bool) public voters;\r\n\r\n    // Read/write candidates\r\n    mapping(uint256 => Candidate) public candidates;\r\n\r\n    mapping(address => bool) public allowedVoters;\r\n\r\n    // Candidates Count\r\n    uint256 public candidatesCount;\r\n\r\n    address public owner;\r\n\r\n    event votedEvent(uint256 indexed _candidateId);\r\n\r\n    constructor(DappToken _tokensContract) public {\r\n        tokensContract = _tokensContract;\r\n        owner = msg.sender;\r\n        addCandidate(\"Licud\");\r\n        addCandidate(\"Haavoda\");\r\n        addCandidate(\"Hmahane hammlachti\");\r\n        addCandidate(\"Yesh Atid\");\r\n    }\r\n\r\n    modifier onlyOwner() {\r\n        require(msg.sender == owner);\r\n        _;\r\n    }\r\n\r\n    function setVotingWindow(uint256 start, uint256 end) public onlyOwner {\r\n        votingWindowStart = start;\r\n        votingWindowEnd = end;\r\n        isWindowSet = true;\r\n    }\r\n\r\n    function addCandidate(string memory _name) public onlyOwner {\r\n        candidatesCount++;\r\n        candidates[candidatesCount] = Candidate(candidatesCount, _name, 0);\r\n    }\r\n\r\n    function vote(uint256 _candidateId) public {\r\n        // Require that they haven't voted before\r\n        require(!voters[msg.sender]);\r\n\r\n        // require a valid candidate\r\n        require(_candidateId > 0 && _candidateId <= candidatesCount);\r\n\r\n        // record that voter has voted\r\n        voters[msg.sender] = true;\r\n\r\n        // Pay the voter with Token\r\n        // We didnt manage to make this part work. #TODO\r\n        //getToken().transfer(msg.sender, 1);\r\n\r\n        // Update candidate vote Count\r\n        candidates[_candidateId].voteCount++;\r\n\r\n        // Voted event\r\n        emit votedEvent(_candidateId);\r\n    }\r\n\r\n    function getToken() public returns (DappToken add) {\r\n        return tokensContract;\r\n    }\r\n\r\n    function submitAllowedVoters(address _allowedVoters) public onlyOwner {\r\n        allowedVoters[_allowedVoters] = true;\r\n    }\r\n}\r\n",
  "sourcePath": "C:\\Users\\Bar\\Desktop\\לימודים\\בלוקציין\\BlockChain Final Project\\BlockChainFinalProject\\contracts\\Election.sol",
  "compiler": {
    "name": "solc",
    "version": "0.5.16+commit.9c3226ce.Emscripten.clang"
  },
  "schemaVersion": "3.4.13",
  "updatedAt": "2023-03-09T06:11:33.448Z",
  "networkType": "ethereum",
  "devdoc": {
    "methods": {}
  },
  "userdoc": {
    "methods": {}
  }
}